:03000000020100FA
:03000B0002017D72
:03001B000201A738
:1001000012810812810C758911758CDC758A007555
:100110008D4C758B0075300075310075320075336C
:1001200000D295D2AFD2A9D2AB12015712811CB422
:100130000A11308C08C28CC28ED29580EFD28CD23C
:100140008E80E9B40BE675300075310075320075AC
:10015000330012015780D57480128106E5301201F8
:100160006C742C128102E53112016C2275F00A8444
:100170002430128102E5F0243012810222C0E0C056
:10018000D0C0F0758CDC758A000531E531B4640DA2
:100190007531000530E530B4640375300012015745
:1001A000D0F0D0D0D0E032C0E0C0D0758D4C758B8F
:1001B00000E53360081533E5337002D2950532E56A
:1001C00032B4C808753200C295753304D0D0D0E07F
:0301D0003280FE7C
:00000001FF
